:020000040800F2
:10000000C005002045010008110500089F040008F4
:100010000D0500088D010008AD0900080000000072
:100020000000000000000000000000002906000899
:100030005103000800000000130500081507000820
:100040005F0100085F0100085F0100085F01000810
:100050005F0100085F0100085F0100085F01000800
:100060005F0100085F0100085F0100085F010008F0
:100070005F0100085F010008910100085F010008AE
:100080005F0100085F0100085F0100085F010008D0
:100090005F0100085F0100085F0100085F010008C0
:1000A0005F0100085F0100085F0100085F010008B0
:1000B0005F0100085F0100085F0100085F010008A0
:1000C0005F0100085F0100085F0100085F01000890
:1000D0005F0100085F0100085F0100085F01000880
:1000E0005F0100085F0100085F0100085F01000870
:1000F0005F0100085F0100085F0100085F01000860
:100100005F0100085F0100085F0100085F0100084F
:100110005F0100085F0100085F0100085F0100083F
:100120005F0100085F0100085F0100085F0100082F
:10013000DFF80CD000F018F800480047250A000846
:10014000C00500200648804706480047FEE7FEE756
:10015000FEE7FEE7FEE7FEE7FEE7FEE7FEE7FEE777
:10016000A907000831010008064C074D06E0E068C9
:1001700040F0010394E8070098471034AC42F6D3EE
:10018000FFF7DAFF380A0008580A000800BFFEE748
:1001900010B54FF4005000F007F80021014800F0BE
:1001A00011F810BD4400024000F0805111B1034924
:1001B000086001E002494860704700000404024002
:1001C0000000024021B1026842F00102026004E036
:1001D00002684FF6FE731A400260704700B58BB09C
:1001E0000121084600F096F9C820039000200290F3
:1001F0000A901D4801900020079080200590202043
:1002000008901A4800900020069004904FF4805007
:1002100009906946164800F02FF801211448FFF7AD
:10022000D1FFC82003901020029000200A901148AE
:1002300001900020079080200590002008900B4836
:1002400000900020069004904FF4005009906946F9
:100250000748143800F010F8012105481438FFF75A
:10026000B1FF0BB000BD0000F800002004380140D1
:10027000580002403000002010B50022026847F606
:10028000F0739A430C6A8B6823430C6923434C69CF
:1002900023438C692343CC6923434C6A23438C6AF0
:1002A00023431A430260CB6843600B6883604B684A
:1002B000C36010BD10B500F035FBFFF78FFF10BD18
:1002C000002400BF05E004F1300015490855601C0A
:1002D000C4B2C82CF7DB13A000F06AFB0122802116
:1002E000144800F09DFA4FF4FA7000F032F8002440
:1002F00003E00B480455601CC4B2C82CF9DB0EA007
:1003000000F056FB0DA000F053FB01210F48FFF752
:1003100059FF01228021074800F082FA00BFFEE762
:1003200030000020537461727420444D413A0D0A2C
:1003300000000000003801400D0A00005374617293
:100340007420444D41323A0D0A000000440002403E
:10035000704700B503464FF47A7103FB01F000F0DB
:1003600001F800BD074908604FF0E021096941F03C
:1003700001014FF0E022116100BF02490968002924
:10038000FBD17047280000202DE9F04102460025EE
:100390000026002000230024002791F803C00CF061
:1003A0000F0591F803C00CF0100CBCF1000F03D046
:1003B00091F802C04CEA050591F800C0BCF1000FAD
:1003C00031D0146800202BE04FF0010C0CFA00F340
:1003D000B1F800C00CEA03069E4220D183004FF022
:1003E0000F0C0CFA03F7BC4305FA03FC4CEA0404B7
:1003F00091F803C0BCF1280F06D14FF0010C0CFAA4
:1004000000FCC2F814C00AE091F803C0BCF1480F28
:1004100005D14FF0010C0CFA00FCC2F810C0401CD2
:100420000828D1D31460B1F800C0BCF1FF0F34DD4F
:10043000546800202EE000F1080C4FF0010808FA83
:100440000CF3B1F800C00CEA03069E4221D18300F0
:100450004FF00F0C0CFA03F7BC4305FA03FC4CEA0F
:10046000040491F803C0BCF1280F05D100F1080C79
:1004700008FA0CF8C2F8148091F803C0BCF1480FD8
:1004800007D100F1080C4FF0010808FA0CF8C2F887
:100490001080401C0828CED35460BDE8F08100BF16
:1004A000FEE7000008B50121882000F043F8102085
:1004B0008DF8030003208DF802002020ADF8000025
:1004C00069461048FFF760FF0120ADF8000069465B
:1004D0000C48FFF759FF0220ADF8000069460948B3
:1004E000FFF752FF8020ADF8000069460648FFF78D
:1004F0004BFF4FF48070ADF8000069460248FFF7EB
:1005000043FF08BD000C0140001C014000BFFEE796
:100510007047704729B1064A52690243044B5A6139
:1005200004E0034A52698243014B5A61704700005C
:100530000010024029B1064A92690243044B9A61B5
:1005400004E0034A92698243014B9A6170470000BC
:100550000010024030B500210022002400232D4D60
:100560006D6805F00C0121B1042905D0082923D1BB
:1005700005E0294D056022E0274D05601FE0254D6F
:100580006D6805F47012234D6D6805F48034022502
:1005900005EB92421CB9214D554305600BE01D4D02
:1005A0006D6805F400351DB11C4D5543056002E032
:1005B000194D5543056002E0174D056000BF00BFAF
:1005C000144D6D6805F0F0010909154D6B5C056867
:1005D000DD4045600F4D6D6805F4E061090A104D7E
:1005E0006B5C4568DD4085600A4D6D6805F46051BF
:1005F000C90A0B4D6B5C4568DD40C560054D6D68F3
:1006000005F44041890B074D6B5CC568B5FBF3F5FC
:10061000056130BD0010024000127A0000093D0063
:100620001400002024000020704710B500F002F8EC
:1006300010BD00000CB50020019000903348006808
:1006400040F480303149086000BF3048006800F451
:10065000003000900198401C0190009818B9019852
:10066000B0F5A06FF1D12948006800F4003010B156
:100670000120009001E0002000900098012843D163
:100680002348006840F010002149086008460068CF
:1006900020F0030008600846006840F0020008608F
:1006A0001A4840681949486008464068486008464A
:1006B000406840F4806048600846406820F47C1040
:1006C00048600846406840F4E81048600846006802
:1006D00040F08070086000BF0C48006800F00070B7
:1006E0000028F9D00948406820F003000749486015
:1006F0000846406840F00200486000BF0348406878
:1007000000F00C000828F9D10CBD000000100240D8
:10071000002002400448006820B103480068401EE1
:1007200001490860704700002800002030B51A48D1
:1007300000681A4AB0FBF2F1B1F1807F01D30120C9
:100740001DE021F07F40401E4FF0E0225061501725
:100750000F22002807DA13071D0E114B00F00F04BB
:10076000241F1D5503E013071C0E0E4B1C5400BF25
:1007700000204FF0E022906107201061002008B1B6
:1007800000BFFEE74FF0E020006920F001004FF0CD
:10079000E021086130BD00000000002040420F0051
:1007A00018ED00E000E400E010B51348006840F0E8
:1007B00001001149086008464068104908400E4988
:1007C0004860084600680E4908400B490860084622
:1007D000006820F4802008600846406820F4FE008D
:1007E00048604FF41F008860FFF71FFF4FF0006064
:1007F0000449086010BD0000001002400000FFF82E
:10080000FFFFF6FE08ED00E021B1828942F40052BC
:10081000828104E082894DF6FF731A40828170471D
:100820001AB1838A0B43838202E0838A8B438382DB
:10083000704702460020B1F5007F00D100BF138849
:100840000B400BB1012000E0002070472DE9F0477C
:1008500086B005460E460024A24600BFA1460027EA
:10086000B08900B100BF2F462C8A4CF6FF700440BF
:10087000F08804432C82AC894EF6F3100440B08813
:1008800031890843718908430443AC81AC8A4FF62F
:10089000FF400440B0890443AC8201A8FFF75AFE30
:1008A0001F48874202D1DDF810A001E0DDF80CA05E
:1008B000A88900F4004040B10AEBCA0000EB0A101E
:1008C00031684900B0FBF1F807E00AEBCA0000EB21
:1008D0000A1031688900B0FBF1F86420B8FBF0F031
:1008E00004012009642101FB1089A88900F400405B
:1008F00040B1322000EBC900B0FBF1F000F007007E
:10090000044308E0322000EB09106421B0FBF1F051
:1009100000F00F0004432C8106B0BDE8F087000012
:100920000038014000B585B001218803FFF702FEC1
:1009300001210520FFF7FEFD18208DF8130003208C
:100940008DF812004FF40070ADF8100004A915489E
:10095000FFF71AFD04208DF8130003208DF8120014
:100960004FF48060ADF8100004A90E48FFF70CFDAD
:100970004FF4E13000900020ADF80C000C20ADF8F1
:100980000A000020ADF80800ADF80600ADF804003C
:1009900069460548FFF75AFF01210348FFF734FF76
:1009A00005B000BD000801400038014000BFFEE76F
:1009B000014A024900F013B8010A00082C00002087
:1009C00002E008C8121F08C1002AFAD17047704718
:1009D000002001E001C1121F002AFBD170472DE960
:1009E000F04116460F460446002503E03946B0475D
:1009F000641C6D1C20780028F8D12846BDE8F081E1
:100A000070B504460D46E0B20549088000BF80215C
:100A10000348001FFFF70DFF0028F8D0204670BDE7
:100A200004380140FFF782FEFFF73CFDFFF742FC70
:100A3000FFF746FC00BFFEE7580A00080000002050
:100A400030000000C0090008880A000830000020BB
:100A500090050000D009000800A24A040000000030
:100A6000000000000102030406070809000000005E
:100A70000102030401020304060708090204060830
:080A800000000000000000006E
:0400000508000131BD
:00000001FF
