:020000040800F2
:10000000C00500204501000839040008C9030008A4
:10001000350400088D0100089D080008000000005C
:100020000000000000000000000000003105000892
:10003000B1020008000000003B0400081D06000893
:100040005F0100085F0100085F0100085F01000810
:100050005F0100085F0100085F0100085F01000800
:100060005F0100085F0100085F0100085F010008F0
:100070005F0100085F0100085F0100085F010008E0
:100080005F0100085F0100085F0100085F010008D0
:100090005F0100085F0100085F0100085F010008C0
:1000A0005F0100085F0100085F0100085F010008B0
:1000B0005F0100085F0100085F0100085F010008A0
:1000C0005F0100085F0100085F0100085F01000890
:1000D0005F0100085F0100085F0100085F01000880
:1000E0005F0100085F0100085F0100085F01000870
:1000F0005F0100085F0100085F0100085F01000860
:100100005F0100085F0100085F0100085F0100084F
:100110005F0100085F0100085F0100085F0100083F
:100120005F0100085F0100085F0100085F0100082F
:10013000DFF80CD000F018F800480047BF080008AE
:10014000C00500200648804706480047FEE7FEE756
:10015000FEE7FEE7FEE7FEE7FEE7FEE7FEE7FEE777
:10016000B106000831010008064C074D06E0E068C2
:1001700040F0010394E8070098471034AC42F6D3EE
:10018000FFF7DAFFD4080008F408000800BFFEE714
:1001900021B1026842F00102026004E002684FF6F9
:1001A000FE731A400260704700B58BB0C820039000
:1001B000002002900A901D480190002007908020A6
:1001C0000590202008901A48009000200690049086
:1001D0004FF4805009906946164800F02FF801212D
:1001E0001448FFF7D5FFC82003901020029000208C
:1001F0000A9011480190002007908020059020204F
:1002000008900B4800900020069004904FF4005096
:10021000099069460748143800F010F80121054894
:100220001438FFF7B5FF0BB000BD0000F40000204C
:1002300004380140580002402C00002010B5002274
:10024000026847F6F0739A430C6A8B6823430C6983
:1002500023434C6923438C692343CC6923434C6A71
:1002600023438C6A23431A430260CB6843600B68C4
:1002700083604B68C36010BD10B500F0CBFAFFF788
:1002800093FF10BD002400BF05E004F130000649D3
:100290000855601CC4B2C82CF7DB0122802103483A
:1002A00000F042FA00BFFEE72C00002000380140B9
:1002B00070472DE9F041024600250026002000236A
:1002C0000024002791F803C00CF00F0591F803C03B
:1002D0000CF0100CBCF1000F03D091F802C04CEAF6
:1002E000050591F800C0BCF1000F31D01468002062
:1002F0002BE04FF0010C0CFA00F3B1F800C00CEA4F
:1003000003069E4220D183004FF00F0C0CFA03F736
:10031000BC4305FA03FC4CEA040491F803C0BCF1A9
:10032000280F06D14FF0010C0CFA00FCC2F814C0E3
:100330000AE091F803C0BCF1480F05D14FF0010C61
:100340000CFA00FCC2F810C0401C0828D1D314607D
:10035000B1F800C0BCF1FF0F34DD546800202EE07E
:1003600000F1080C4FF0010808FA0CF3B1F800C0D6
:100370000CEA03069E4221D183004FF00F0C0CFAC9
:1003800003F7BC4305FA03FC4CEA040491F803C0EC
:10039000BCF1280F05D100F1080C08FA0CF8C2F8DE
:1003A000148091F803C0BCF1480F07D100F1080C8C
:1003B0004FF0010808FA0CF8C2F81080401C082819
:1003C000CED35460BDE8F08100BFFEE708B501213F
:1003D000882000F033F810208DF8030003208DF8FA
:1003E00002002020ADF8000069461048FFF761FFC9
:1003F0000120ADF8000069460C48FFF75AFF0220C3
:10040000ADF8000069460948FFF753FF8020ADF8BA
:10041000000069460648FFF74CFF4FF48070ADF8C6
:10042000000069460248FFF744FF08BD000C014088
:10043000001C014000BFFEE77047704729B1064A23
:1004400092690243044B9A6104E0034A9269824331
:10045000014B9A61704700000010024030B5002146
:100460000022002400232D4D6D6805F00C0121B100
:10047000042905D0082923D105E0294D056022E093
:10048000274D05601FE0254D6D6805F47012234D62
:100490006D6805F48034022505EB92421CB9214DAC
:1004A000554305600BE01D4D6D6805F400351DB129
:1004B0001C4D5543056002E0194D5543056002E0AF
:1004C000174D056000BF00BF144D6D6805F0F001C9
:1004D0000909154D6B5C0568DD4045600F4D6D6881
:1004E00005F4E061090A104D6B5C4568DD408560EC
:1004F0000A4D6D6805F46051C90A0B4D6B5C456887
:10050000DD40C560054D6D6805F44041890B074D20
:100510006B5CC568B5FBF3F5056130BD00100240AA
:1005200000127A0000093D00140000202400002081
:10053000704710B500F002F810BD00000CB50020A7
:10054000019000903348006840F4803031490860E1
:1005500000BF3048006800F4003000900198401C53
:100560000190009818B90198B0F5A06FF1D1294811
:10057000006800F4003010B10120009001E000207C
:1005800000900098012843D12348006840F01000F3
:10059000214908600846006820F00300086008460A
:1005A000006840F0020008601A4840681949486035
:1005B0000846406848600846406840F480604860EB
:1005C0000846406820F47C1048600846406840F4C3
:1005D000E81048600846006840F08070086000BF7E
:1005E0000C48006800F000700028F9D00948406805
:1005F00020F00300074948600846406840F00200C8
:10060000486000BF0348406800F00C000828F9D19A
:100610000CBD0000001002400020024004480068A9
:1006200020B103480068401E01490860704700007F
:100630002800002030B51A4800681A4AB0FBF2F1D1
:10064000B1F1807F01D301201DE021F07F40401EE9
:100650004FF0E022506150170F22002807DA1307ED
:100660001D0E114B00F00F04241F1D5503E013074E
:100670001C0E0E4B1C5400BF00204FF0E022906176
:1006800007201061002008B100BFFEE74FF0E02016
:10069000006920F001004FF0E021086130BD00004A
:1006A0000000002040420F0018ED00E000E400E0F0
:1006B00010B51348006840F0010011490860084671
:1006C0004068104908400E494860084600680E49D5
:1006D00008400B4908600846006820F48020086044
:1006E0000846406820F4FE0048604FF41F00886010
:1006F000FFF71FFF4FF000600449086010BD0000C5
:10070000001002400000FFF8FFFFF6FE08ED00E0D9
:1007100021B1828942F40052828104E082894DF63F
:10072000FF731A40828170471AB1838A0B43838218
:1007300002E0838A8B438382704700002DE9F047F3
:1007400086B005460E460024A24600BFA1460027FB
:10075000B08900B100BF2F462C8A4CF6FF700440D0
:10076000F08804432C82AC894EF6F3100440B08824
:1007700031890843718908430443AC81AC8A4FF640
:10078000FF400440B0890443AC8201A8FFF766FE35
:100790001F48874202D1DDF810A001E0DDF80CA06F
:1007A000A88900F4004040B10AEBCA0000EB0A102F
:1007B00031684900B0FBF1F807E00AEBCA0000EB32
:1007C0000A1031688900B0FBF1F86420B8FBF0F042
:1007D00004012009642101FB1089A88900F400406C
:1007E00040B1322000EBC900B0FBF1F000F007008F
:1007F000044308E0322000EB09106421B0FBF1F063
:1008000000F00F0004432C8106B0BDE8F087000023
:100810000038014000B585B001210420FFF70EFE2D
:1008200018208DF8130003208DF812004FF400708B
:10083000ADF8100004A91748FFF73BFD04208DF820
:10084000130003208DF812004FF48060ADF8100003
:1008500004A91048FFF72DFD01218803FFF7EEFDE5
:100860004FF4E13000900020ADF80C000C20ADF802
:100870000A000020ADF80800ADF80600ADF804004D
:1008800069460548FFF75AFF01210348FFF740FF7B
:1008900005B000BD000801400038014000BFFEE780
:1008A00002E008C8121F08C1002AFAD17047704739
:1008B000002001E001C1121F002AFBD17047FFF7A1
:1008C000B9FEFFF783FDFFF7D7FCFFF7DBFC00BFA6
:1008D000FEE70000F4080008000000202C000000E3
:1008E000A0080008200900082C0000209405000042
:1008F000B008000800A24A04000000000000000048
:1009000001020304060708090000000001020304B5
:10091000010203040607080902040608000000009B
:0400000508000131BD
:00000001FF
