:020000040800F2
:10000000480400204501000851050008A504000827
:100010004D0500088D010008450B00080000000098
:10002000000000000000000000000000F1060008D1
:100030008903000800000000D9050008DD0700085A
:100040005F0100085F0100085F0100085F01000810
:100050005F0100085F0100085F0100085F01000800
:100060005F0100085F0100085F0100085F010008F0
:100070005F0100085F01000891010008B10100085C
:100080005F0100085F0100085F0100085F010008D0
:100090005F0100085F0100085F0100085F010008C0
:1000A0005F0100085F0100085F0100085F010008B0
:1000B0005F0100085F0100085F0100085F010008A0
:1000C0005F0100085F0100085F0100085F01000890
:1000D0005F010008D10800085F0100085F01000807
:1000E0005F0100085F0100085F0100085F01000870
:1000F0005F0100085F0100085F0100085F01000860
:100100005F0100085F0100085F0100085F0100084F
:100110005F0100085F0100085F0100085F0100083F
:100120005F0100085F0100085F0100085F0100082F
:10013000DFF80CD000F018F800480047670B000803
:10014000480400200648804706480047FEE7FEE7CF
:10015000FEE7FEE7FEE7FEE7FEE7FEE7FEE7FEE777
:100160007108000831010008064C074D06E0E06800
:1001700040F0010394E8070098471034AC42F6D3EE
:10018000FFF7DAFF7C0B00089C0B000800BFFEE7BE
:1001900010B50021054800F01BF84FF4005000F0A6
:1001A00009F80A21014800F0D4F810BD44000240CB
:1001B0007047000000F0805111B10349086001E070
:1001C00002494860704700000404024000000240F9
:1001D00021B1026842F00102026004E002684FF6B9
:1001E000FE731A400260704700B58BB001210846CB
:1001F00000F0F4F90A200390002002900A902048B1
:1002000001900020079080200590002008901D4854
:1002100000900020069004904FF4805009906946A9
:10022000194800F03EF801211748FFF7D1FF0122DD
:100230000221154800F02CF80A20039010200290AB
:1002400000200A901148019000200790802005901E
:10025000002008900B4800900020069004904FF476
:100260000050099069460848143800F01AF8012235
:1002700002210548143800F00BF80BB000BD000057
:100280003A000020043801405800024030000020AD
:100290001AB103680B43036002E003688B430360F9
:1002A000704710B50022026847F6F0739A430C6A53
:1002B0008B6823430C6923434C6923438C69234394
:1002C000CC6923434C6A23438C6A23431A4302605C
:1002D000CB6843600B6883604B68C36010BD08B592
:1002E0004FF4806000F06EF925208DF800000220A8
:1002F0008DF8010001208DF802008DF8030068469A
:1003000000F028F94FF4806000F05CF90E208DF8C1
:10031000000003208DF8010002208DF8020001206A
:100320008DF80300684600F015F94FF4806000F086
:1003300049F90F208DF8000004208DF801000220FB
:100340008DF8020001208DF80300684600F002F9E4
:1003500008BD4160704710B500F0A4FBFFF744FFF3
:10036000FFF7BDFF10BD000009E00548007830B17F
:1003700000200349087001210248FFF729FFF4E734
:100380002C0000204400024070472DE9F041024655
:1003900000250026002000230024002791F803C038
:1003A0000CF00F0591F803C00CF0100CBCF1000F1D
:1003B00003D091F802C04CEA050591F800C0BCF1E9
:1003C000000F31D0146800202BE04FF0010C0CFA24
:1003D00000F3B1F800C00CEA03069E4220D183006E
:1003E0004FF00F0C0CFA03F7BC4305FA03FC4CEA80
:1003F000040491F803C0BCF1280F06D14FF0010CA2
:100400000CFA00FCC2F814C00AE091F803C0BCF179
:10041000480F05D14FF0010C0CFA00FCC2F810C0D7
:10042000401C0828D1D31460B1F800C0BCF1FF0F04
:1004300034DD546800202EE000F1080C4FF0010874
:1004400008FA0CF3B1F800C00CEA03069E4221D171
:1004500083004FF00F0C0CFA03F7BC4305FA03FCC2
:100460004CEA040491F803C0BCF1280F05D100F157
:10047000080C08FA0CF8C2F8148091F803C0BCF11B
:10048000480F07D100F1080C4FF0010808FA0CF8EA
:10049000C2F81080401C0828CED35460BDE8F0811B
:1004A0000161704700BFFEE710B580210A48FFF7E1
:1004B000F7FF4FF480710848FFF7F2FF202107484B
:1004C000FFF7EEFF01210548FFF7EAFF022103488D
:1004D000FFF7E6FF10BD0000001C0140000C0140CA
:1004E00008B50121882000F089F810208DF803005C
:1004F00003208DF802002020ADF800006946114865
:10050000FFF743FF0120ADF8000069460D48FFF7F3
:100510003CFF0220ADF8000069460A48FFF735FFAE
:100520008020ADF8000069460748FFF72EFF4FF422
:100530008070ADF8000069460348FFF726FFFFF71B
:10054000B3FF08BD000C0140001C014000BFFEE7E6
:100550007047000070B5002100230F22C47804B357
:10056000154C246804F4E064C4F5E064210AC1F188
:100570000403CA40447804FA03F184781440214308
:1005800009010E4C0678A155047804F01F050124DA
:10059000AC4005786D11AD0005F1E025C5F80041CE
:1005A00009E0047804F01F050124AC40044D0678EE
:1005B000761145F8264070BD0CED00E000E400E047
:1005C00080E100E002490143024A116070470000E7
:1005D0000000FA050CED00E07047000029B1064A62
:1005E00052690243044B5A6104E0034A5269824350
:1005F000014B5A61704700000010024029B1064AC1
:1006000092690243044B9A6104E0034A926982436F
:10061000014B9A61704700000010024030B5002184
:100620000022002400232D4D6D6805F00C0121B13E
:10063000042905D0082923D105E0294D056022E0D1
:10064000274D05601FE0254D6D6805F47012234DA0
:100650006D6805F48034022505EB92421CB9214DEA
:10066000554305600BE01D4D6D6805F400351DB167
:100670001C4D5543056002E0194D5543056002E0ED
:10068000174D056000BF00BF144D6D6805F0F00107
:100690000909154D6B5C0568DD4045600F4D6D68BF
:1006A00005F4E061090A104D6B5C4568DD4085602A
:1006B0000A4D6D6805F46051C90A0B4D6B5C4568C5
:1006C000DD40C560054D6D6805F44041890B074D5F
:1006D0006B5CC568B5FBF3F5056130BD00100240E9
:1006E00000127A0000093D001400002024000020C0
:1006F000704710B500F002F810BD00000CB50020E6
:10070000019000903348006840F48030314908601F
:1007100000BF3048006800F4003000900198401C91
:100720000190009818B90198B0F5A06FF1D129484F
:10073000006800F4003010B10120009001E00020BA
:1007400000900098012843D12348006840F0100031
:10075000214908600846006820F003000860084648
:10076000006840F0020008601A4840681949486073
:100770000846406848600846406840F48060486029
:100780000846406820F47C1048600846406840F401
:10079000E81048600846006840F08070086000BFBC
:1007A0000C48006800F000700028F9D00948406843
:1007B00020F00300074948600846406840F0020006
:1007C000486000BF0348406800F00C000828F9D1D9
:1007D0000CBD0000001002400020024004480068E8
:1007E00020B103480068401E0149086070470000BE
:1007F0002800002030B51A4800681A4AB0FBF2F110
:10080000B1F1807F01D301201DE021F07F40401E27
:100810004FF0E022506150170F22002807DA13072B
:100820001D0E114B00F00F04241F1D5503E013078C
:100830001C0E0E4B1C5400BF00204FF0E0229061B4
:1008400007201061002008B100BFFEE74FF0E02054
:10085000006920F001004FF0E021086130BD000088
:100860000000002040420F0018ED00E000E400E02E
:1008700010B51348006840F00100114908600846AF
:100880004068104908400E494860084600680E4913
:1008900008400B4908600846006820F48020086082
:1008A0000846406820F4FE0048604FF41F0088604E
:1008B000FFF71FFF4FF000600449086010BD000003
:1008C000001002400000FFF8FFFFF6FE08ED00E018
:1008D00010B540F22441104800F046F8D0B10F485E
:1008E0000F490A6802604A68426009890181302123
:1008F000094800F01BF800210A48FFF769FC4FF493
:100900008030FFF757FC0A210648FFF722FD01203F
:100910000549087010BD000000380140300000207B
:100920003A000020580002402C00002001F4007220
:10093000B2F5007F00D100BFCA430280704721B1E9
:10094000828942F40052828104E082894DF6FF736D
:100950001A40828170471AB1838A0B43838202E076
:10096000838A8B438382704702460020B1F5007F63
:1009700000D100BF13880B400BB1012000E0002024
:100980007047F0B50346002400260025002040F6FD
:100990006A17B94200D100BF1846C1F3421401F0F2
:1009A0001F06012707FA06F5012C01D10C3004E0DF
:1009B000022C01D1103000E014301AB107682F4327
:1009C000076002E00768AF430760F0BD2DE9F0471C
:1009D00086B005460E460024A24600BFA146002769
:1009E000B08900B100BF2F462C8A4CF6FF7004403E
:1009F000F08804432C82AC894EF6F3100440B08892
:100A000031890843718908430443AC81AC8A4FF6AD
:100A1000FF400440B0890443AC8201A8FFF7FEFD0B
:100A20001F48874202D1DDF810A001E0DDF80CA0DC
:100A3000A88900F4004040B10AEBCA0000EB0A109C
:100A400031684900B0FBF1F807E00AEBCA0000EB9F
:100A50000A1031688900B0FBF1F86420B8FBF0F0AF
:100A600004012009642101FB1089A88900F40040D9
:100A700040B1322000EBC900B0FBF1F000F00700FC
:100A8000044308E0322000EB09106421B0FBF1F0D0
:100A900000F00F0004432C8106B0BDE8F087000091
:100AA0000038014000B585B001218803FFF7A6FD9D
:100AB00001210520FFF7A2FD18208DF81300032067
:100AC0008DF812004FF40070ADF8100004A91B4817
:100AD000FFF75BFC04208DF8130003208DF8120053
:100AE0004FF48060ADF8100004A91448FFF74DFCE6
:100AF0004FF4E13000900020ADF80C000C20ADF870
:100B00000A000020ADF80800ADF80600ADF80400BA
:100B100069460B48FFF75AFF01210948FFF70FFF0D
:100B2000012280210648FFF716FF012240F22551DD
:100B30000348FFF726FF05B000BD00000008014094
:100B40000038014000BFFEE702E008C8121F08C1DC
:100B5000002AFAD170477047002001E001C1121F3E
:100B6000002AFBD17047FFF745FEFFF7B9FCFFF7FE
:100B7000F2FBFFF7F9FB00BFFEE700009C0B00084B
:100B80000000002030000000480B0008CC0B0008DB
:100B90003000002018040000580B000800A24A048E
:100BA000000000000000000001020304060708091D
:100BB0000000000001020304010203040607080903
:0C0BC00002040608000000000000000015
:0400000508000131BD
:00000001FF
