:020000040800F2
:100000001804002045010008BF040008E7020008AA
:10001000BB0400088D010008C506000800000000B0
:10002000000000000000000000000000E5040008DF
:100030009101000800000000C1040008D10500087B
:100040005F0100085F0100085F0100085F01000810
:100050005F0100085F0100085F0100085F01000800
:100060005F0100085F0100085F0100085F010008F0
:100070005F0100085F0100085F0100085F010008E0
:100080005F0100085F0100085F0100085F010008D0
:100090005F0100085F0100085F0100085F010008C0
:1000A0005F0100085F0100085F0100085F010008B0
:1000B0005F0100085F0100085F0100085F010008A0
:1000C0005F0100085F0100085F0100085F01000890
:1000D0005F0100085F0100085F0100085F01000880
:1000E0005F0100085F0100085F0100085F01000870
:1000F0005F0100085F0100085F0100085F01000860
:100100005F0100085F0100085F0100085F0100084F
:100110005F0100085F0100085F0100085F0100083F
:100120005F0100085F0100085F0100085F0100082F
:10013000DFF80CD000F018F800480047E706000888
:10014000180400200648804706480047FEE7FEE7FF
:10015000FEE7FEE7FEE7FEE7FEE7FEE7FEE7FEE777
:100160006506000831010008064C074D06E0E0680E
:1001700040F0010394E8070098471034AC42F6D3EE
:10018000FFF7DAFFF80600081807000800BFFEE7CF
:10019000704700B503464FF47A7103FB01F000F09D
:1001A00001F800BD074908604FF0E021096941F0FE
:1001B00001014FF0E022116100BF024909680029E6
:1001C000FBD17047140000202DE9F04102460025C4
:1001D0000026002000230024002791F803C00CF023
:1001E0000F0591F803C00CF0100CBCF1000F03D008
:1001F00091F802C04CEA050591F800C0BCF1000F6F
:1002000031D0146800202BE04FF0010C0CFA00F301
:10021000B1F800C00CEA03069E4220D183004FF0E3
:100220000F0C0CFA03F7BC4305FA03FC4CEA040478
:1002300091F803C0BCF1280F06D14FF0010C0CFA65
:1002400000FCC2F814C00AE091F803C0BCF1480FEA
:1002500005D14FF0010C0CFA00FCC2F810C0401C94
:100260000828D1D31460B1F800C0BCF1FF0F34DD11
:10027000546800202EE000F1080C4FF0010808FA45
:100280000CF3B1F800C00CEA03069E4221D18300B2
:100290004FF00F0C0CFA03F7BC4305FA03FC4CEAD1
:1002A000040491F803C0BCF1280F05D100F1080C3B
:1002B00008FA0CF8C2F8148091F803C0BCF1480F9A
:1002C00007D100F1080C4FF0010808FA0CF8C2F849
:1002D0001080401C0828CED35460BDE8F0814161F5
:1002E00070470161704700BFFEE7000010B504468B
:1002F00024B980210448FFF7F2FF03E0802102487F
:10030000FFF7EFFF10BD0000001C014010B50446D0
:100310002CB94FF480710548FFF7E1FF04E04FF47A
:1003200080710248FFF7DDFF10BD0000001C014096
:1003300008B50121882000F0C5F810208DF80300D1
:1003400003208DF802002020ADF800006946104817
:10035000FFF73AFF0120ADF8000069460C48FFF7AF
:1003600033FF0220ADF8000069460948FFF72CFF73
:100370008020ADF8000069460648FFF725FF4FF4DE
:100380008070ADF8000069460248FFF71DFF08BD08
:10039000000C0140001C014010B5044624B90221A4
:1003A0000448FFF79CFF03E002210248FFF799FF92
:1003B00010BD0000000C014010B5044624B9012115
:1003C0000448FFF78CFF03E001210248FFF789FF93
:1003D00010BD0000000C014010B5044624B92021D6
:1003E0000448FFF77CFF03E020210248FFF779FF74
:1003F00010BD0000000C01405EE00020FFF776FF1A
:100400000120FFF783FF0120FFF7E6FF0120FFF740
:10041000D3FF0120FFF7C0FF4FF49670FFF7B9FE3E
:100420000120FFF763FF0020FFF770FF0120FFF7B7
:10043000D3FF0120FFF7C0FF0120FFF7ADFF4FF40E
:100440009670FFF7A6FE0120FFF750FF0120FFF78F
:100450005DFF0020FFF7C0FF0120FFF7ADFF012087
:10046000FFF79AFF4FF49670FFF793FE0120FFF716
:100470003DFF0120FFF74AFF0120FFF7ADFF0020FD
:10048000FFF79AFF0120FFF787FF4FF49670FFF701
:1004900080FE0120FFF72AFF0120FFF737FF012030
:1004A000FFF79AFF0120FFF787FF0020FFF774FF97
:1004B0004FF49670FFF76DFE9FE700BFFEE77047B1
:1004C0007047000029B1064A92690243044B9A61C1
:1004D00004E0034A92698243014B9A61704700002D
:1004E00000100240704710B500F002F810BD000087
:1004F0000CB50020019000903348006840F4803033
:100500003149086000BF3048006800F400300090B6
:100510000198401C0190009818B90198B0F5A06F9F
:10052000F1D12948006800F4003010B1012000909A
:1005300001E0002000900098012843D12348006882
:1005400040F01000214908600846006820F00300D0
:1005500008600846006840F0020008601A484068D9
:10056000194948600846406848600846406840F4B9
:10057000806048600846406820F47C104860084667
:10058000406840F4E81048600846006840F0807019
:10059000086000BF0C48006800F000700028F9D027
:1005A0000948406820F00300074948600846406851
:1005B00040F00200486000BF0348406800F00C00B3
:1005C0000828F9D10CBD00000010024000200240B4
:1005D0000448006820B103480068401E01490860D3
:1005E000704700001400002030B51A4800681A4A0D
:1005F000B0FBF2F1B1F1807F01D301201DE021F0C9
:100600007F40401E4FF0E022506150170F2200281B
:1006100007DA13071D0E114B00F00F04241F1D55A0
:1006200003E013071C0E0E4B1C5400BF00204FF0BC
:10063000E022906107201061002008B100BFFEE7B2
:100640004FF0E020006920F001004FF0E021086148
:1006500030BD00000000002040420F0018ED00E017
:1006600000E400E010B51348006840F001001149B3
:10067000086008464068104908400E49486008462E
:1006800000680E4908400B4908600846006820F4DD
:10069000802008600846406820F4FE0048604FF45F
:1006A0001F008860FFF71FFF4FF0006004490860DB
:1006B00010BD0000001002400000FFF8FFFFF6FE32
:1006C00008ED00E000BFFEE702E008C8121F08C105
:1006D000002AFAD170477047002001E001C1121FC3
:1006E000002AFBD17047FFF77FFFFFF721FEFFF7DE
:1006F00083FE00BFFEE7000018070008000000208E
:1007000018000000C8060008300700081800002084
:1007100000040000D806000800A24A0400000000FF
:1007200000000000010203040607080900000000A1
:0400000508000131BD
:00000001FF
